:1000000012C019C018C017C016C015C014C013C044
:1000100012C011C010C00FC00EC00DC00CC00BC06C
:100020000AC009C008C011241FBECFE5D4E0DEBF5E
:10003000CDBF2BD047C0E4CF82BB88B38E7F88BBB7
:1000400088B38D7F88BB88B3846088BB000088B389
:100050008B7F88BB8DEE92E00197F1F700C0000026
:1000600008958FEF87BB81BB87E893E10197F1F794
:1000700000C0000088E3E0DF8CE0DEDF86E0DCDF4C
:1000800081E0DADF80E8D8DF0895EBDF88E084BB29
:1000900080E687B987E886B985B3886085BB81E04B
:1000A00090E08131910514F081E090E08530910578
:1000B00024F425B3286025BB03C025B3277F25BBC7
:0800C0000196EFCFF894FFCF89
:00000001FF
